:1004050050617373776F72643A004F4B202000651B
:0404150072726F0090
:10014D001204197BFF7A0479057D017F0112037C6E
:10015D001200038F18E51860F7D3940A5041C3E5D8
:10016D001A9404E51994005028AE1BAF1C7C007D39
:10017D000A1202378E1B8F1CE51875F00A84E5F004
:10018D00251CF51CE4351BF51B051AE51A70020537
:10019D0019750C04AB1CAA1B7D017F021203BDE572
:1001AD0018640B7036E51CB4D30DE51BB407087B42
:1001BD00FF7A04790F80067BFF7A0479147D0C7F1A
:1001CD000112037CE4F51BF51CF519F51A750C04E9
:1001DD00AB1CAA1B7D017F021203BDE518640C60E8
:1001ED000302015DF51BF51CF519F51A750C04AB31
:0D01FD001CAA1B7D017F021203BD02015DE3
:0603F000AE071FEE600ED7
:0C03F600750902750AEFD50AFDD509FA59
:0304020080EC2269
:06042D00C2A58F80D2A7DA
:080433007F027EEFDEFEDFFC1C
:01043B00229E
:0A044800C2A612042DC2A70204335D
:10039F00CFCDCFCECCCE1202497C007D0A120249BE
:0403AF00ED2430FF0A
:0A03B300D2A612042DC2A7020433E3
:1003DA00AE07BE0104ED148006BE0209ED243F44B7
:0603EA0080FF120448220E
:100419007F381204487F0C1204487F061204487F73
:040429000102044880
:0A045200AC031203DAAF040203B397
:06037C008B088A09890AC2
:100382001203DAE4FDAB08AA09A90A8D827583007B
:0C03920012020AFF60061203B30D80E99E
:01039E00223C
:0C0349007F0AEA24FFFDE434FFFC7E0084
:080355008E0D8F0E8C0F8D1030
:10035D007F017E00E4FBEBC39510E50F6480F8741C
:0E036D008098500AAC0DAD0E1202370B80E8DE
:01037B00225F
:0403BD008A0A8B0B12
:1003C1001203DAAA0CEAD39400400D120349AC0AD5
:0803D100AD0B12039F1A80ED31
:0103D9002201
:10029E001203DAC3EA64809480400B7F2B1203B3FF
:1002AE008A168B17800E7F2D1203B3C3E49BF517AE
:1002BE00E49AF516AA15EAD39400400D120349AC40
:0902CE0016AD1712039F1A80ED12
:0102D7002204
:0402D8008A1F8B20CE
:1002DC001203DAAA21EAD3940040297F1012034BAF
:1002EC00AC1FAD20CFCDCFCECCCE120249EF540FE8
:1002FC00FEC3940AEE5004243080022437FF12030C
:04030C00B31A80D1CF
:0103100022CA
:040311008A248B258A
:100315001203DAAA26EAD394004028EA24FFFDE472
:1003250034FFFC7F027E00120355AC24AD25CFCDF2
:10033500CFCECCCE120249EF54012430FF1203B3C5
:030345001A80D249
:010348002292
:10000300E4F5087590FFC2932097107F141203F054
:100013003097FD7F141203F07508012096107F14AA
:100023001203F03096FD7F141203F0750805209536
:10003300107F141203F03095FD7F141203F075083E
:10004300092094107F141203F03094FD7F141203DF
:10005300F075080D7590FFC2922097107F1412035C
:10006300F03097FD7F141203F07508022096107F7D
:10007300141203F03096FD7F141203F07508062066
:1000830095107F141203F03095FD7F141203F07561
:10009300080A2094107F141203F03094FD7F141289
:1000A30003F075080E7590FFC2912097107F14120C
:1000B30003F03097FD7F141203F0750803209610A8
:1000C3007F141203F03096FD7F141203F0750807B6
:1000D3002095107F141203F03095FD7F141203F066
:1000E30075080B2094107F141203F03094FD7F14D5
:1000F3001203F075080F7590FFC2902097107F14BC
:100103001203F03097FD7F141203F0750804209654
:10011300107F141203F03096FD7F141203F075085C
:10012300082095107F141203F03095FD7F141203FD
:10013300F075080C2094107F141203F03094FD7FA7
:09014300141203F0750810AF0856
:01014C002290
:0300000002043CBB
:0C043C00787FE4F6D8FD75812602014DA2
:10020A00BB010CE58229F582E5833AF583E02250A9
:10021A0006E92582F8E622BBFE06E92582F8E222F3
:0D022A00E58229F582E5833AF583E493220D
:10023700EF8DF0A4A8F0CF8CF0A428CE8DF0A42EDB
:02024700FE2295
:10024900BC000BBE0029EF8DF084FFADF022E4CC99
:10025900F875F008EF2FFFEE33FEEC33FCEE9DEC62
:10026900984005FCEE9DFE0FD5F0E9E4CEFD22EDA8
:10027900F8F5F0EE8420D21CFEADF075F008EF2FF2
:10028900FFED33FD4007985006D5F0F222C398FDE3
:050299000FD5F0EA2280
:00000001FF
