:10031D001203631200038F25E52560F7FB7A007544
:0B032D000C037D027F0112030080E83A
:06034E00AE071FEE600E79
:0C035400750902750AEFD50AFDD509FAFB
:0303600080EC220C
:06037700C2A58F80D2A791
:08037D007F027EEFDEFEDFFCD3
:010385002255
:0A039200C2A6120377C2A702037D82
:1002E200CFCDCFCECCCE12018C7C007D0A12018CF8
:0402F200ED2430FFC8
:0A02F600D2A6120377C2A702037D0F
:10033800AE07BE0104ED148006BE0209ED243F4459
:0603480080FF1203922267
:100363007F381203927F0C1203927F061203927F4F
:0403730001020392EE
:0A039C00AC03120338AF040202F6AE
:0602BF008B228A23892432
:1002C500120338E4FDAB22AA23A9248D827583008D
:0C02D50012014DFF60061202F60D80E9D8
:0102E10022FA
:0C028C007F0AEA24FFFDE434FFFC7E0042
:080298008E0D8F0E8C0F8D10EE
:1002A0007F017E00E4FBEBC39510E50F6480F874DA
:0E02B0008098500AAC0DAD0E12017A0B80E85A
:0102BE00221D
:040300008A0A8B0BCF
:10030400120338AA0CEAD39400400D12028CAC0AF2
:08031400AD0B1202E21A80EDAC
:01031C0022BE
:1001E100120338C3EA64809480400B7F2B1202F61D
:1001F1008A168B17800E7F2D1202F6C3E49BF5172A
:10020100E49AF516AA15EAD39400400D12028CACBB
:0902110016AD171202E21A80ED8D
:01021A0022C1
:04021B008A1A8B1B95
:10021F00120338AA1CEAD3940040297F1012028ED1
:10022F00AC1AAD1BCFCDCFCECCCE12018CEF540F6D
:10023F00FEC3940AEE5004243080022437FF1202CA
:04024F00F61A80D14A
:010253002288
:040254008A1F8B2052
:10025800120338AA21EAD394004028EA24FFFDE4D7
:1002680034FFFC7F027E00120298AC1FAD20CFCD78
:10027800CFCECCCE12018CEF54012430FF1202F6FF
:030288001A80D207
:01028B002250
:10000300E4F5087590FFC2932097107F1412034EF6
:100013003097FD7F1412034E7508012096107F144C
:1000230012034E3096FD7F1412034E75080520957A
:10003300107F1412034E3095FD7F1412034E750882
:10004300092094107F1412034E3094FD7F14120381
:100053004E75080D7590FFC2922097107F141203FE
:100063004E3097FD7F1412034E7508022096107FC1
:100073001412034E3096FD7F1412034E75080620AA
:1000830095107F1412034E3095FD7F1412034E75A5
:10009300080A2094107F1412034E3094FD7F14122B
:1000A300034E75080E7590FFC2912097107F1412AE
:1000B300034E3097FD7F1412034E750803209610EC
:1000C3007F1412034E3096FD7F1412034E750807FA
:1000D3002095107F1412034E3095FD7F1412034EAA
:1000E30075080B2094107F1412034E3094FD7F1477
:1000F30012034E75080F7590FFC2902097107F145E
:1001030012034E3097FD7F1412034E750804209698
:10011300107F1412034E3096FD7F1412034E7508A0
:10012300082095107F1412034E3095FD7F1412039F
:100133004E75080C2094107F1412034E3094FD7FEB
:090143001412034E750810AF08F8
:01014C002290
:0300000002038672
:0C038600787FE4F6D8FD75812502031D88
:10014D00BB010CE58229F582E5833AF583E0225067
:10015D0006E92582F8E622BBFE06E92582F8E222B1
:0D016D00E58229F582E5833AF583E49322CB
:10017A00EF8DF0A4A8F0CF8CF0A428CE8DF0A42E99
:02018A00FE2253
:10018C00BC000BBE0029EF8DF084FFADF022E4CC57
:10019C00F875F008EF2FFFEE33FEEC33FCEE9DEC20
:1001AC00984005FCEE9DFE0FD5F0E9E4CEFD22ED66
:1001BC00F8F5F0EE8420D21CFEADF075F008EF2FB0
:1001CC00FFED33FD4007985006D5F0F222C398FDA1
:0501DC000FD5F0EA223E
:00000001FF
