:100003000000000000000000FF8888888800FE01CF
:10001300010101FE00187EC381818100FF18244283
:1000230081000000000000C020100F1020C000005D
:100033003C42818181423C0000FC0201010102FC3F
:1000430000000000FD0000000000000000000000B0
:10005300E4F509F50A120117E4F508E50825099006
:10006300000393FFE508FD7C001200BF0508E508C7
:10007300C3944040E6050AE50AD3940140DAE4F567
:0F0083000A0509E509D3944040CEE4F50980C988
:0600F600AE071FEE600ED4
:0C00FC00750D02750EEFD50EFDD50DFA46
:0301080080EC2266
:05011700C2B6C2B522D2
:02009200AD07B8
:10009400E4FB74807E00A803088006CEA2E713CE9A
:1000A40013D8F8FFEDF582EF558224FF92B4D2B64F
:0A00B400C2B60BBB08DCD2B5C2B522
:0100BE00221F
:1000BF008C0B8D0C120092AF0C7480A80708800275
:1000CF00C313D8FCF4F580E4FF1200F67580FF220D
:1000DF005389F0438901758A66758CFCC28DD28C69
:0700EF00D2A9D2AFC2B92271
:0300000002010BEF
:0C010B00787FE4F6D8FD75810E020053E9
:00000001FF
