:10009A00204818F88CF8F3F95BF9B8FA15FA67FAF8
:1000AA00B9FB04FB4BFB90FBCFFC10FC44FC79FC36
:1000BA00ACFCDCFD09FD34FD5CFD82FDA6FDC8FD3E
:1000CA00E8FE06FE22FE3DFE56FE6EFE85FE9AFE06
:1000DA00AEFEC1FED3FEE4FEF4FF030E080C0C13C1
:0B00EA0013151513111110100E0E0C51
:10011C00120139051674082516F8E6F5177FE81252
:0D012C000150C28C7F05120150D28C80E67C
:03000B000200F6FA
:1000F600C0E0C0D075D000C000C006E51725E024DA
:1001060018F8E6FE08E6F58AEEF58CB2A5D006D01C
:0601160000D0D0D0E03261
:06015000AE071FEE600E79
:0C0156007560027561EFD561FDD560FA9F
:0301620080EC220C
:100139005389F0438901758A18758CFCC28DD28C5C
:07014900D2A9D2AFC2B92216
:0300000002000EED
:0C000E00787FE4F6D8FD75816102005592
:10001A0002011CE493A3F8E493A34003F68001F2DF
:10002A0008DFF48029E493A3F85407240CC8C333E7
:10003A00C4540F4420C8834004F456800146F6DFB6
:10004A00E4800B010204081020408090009AE47EAC
:10005A00019360BCA3FF543F30E509541FFEE493AB
:10006A00A360010ECF54C025E060A840B8E493A372
:10007A00FAE493A3F8E493A3C8C582C8CAC583CA9D
:10008A00F0A3C8C582C8CAC583CADFE9DEE780BE55
:0100F500000A
:00000001FF
