:100175001202230526E526700205257FE812020EE8
:100185007FE812020E750C05AB26AA257D017F01BD
:050195001201DB80DE19
:06023700C2A58F80D2A7D2
:08023D007F027EEFDEFEDFFC14
:010245002296
:0A025200C2A6120237C2A702023D45
:1001BD00CFCDCFCECCCE1200427C007D0A120042B4
:0401CD00ED2430FFEE
:0A01D100D2A6120237C2A702023DB7
:1001F800AE07BE0104ED148006BE0209ED243F449B
:0602080080FF12025222E9
:100223007F381202527F0C1202527F061202527F53
:040233000102025270
:0A025C00AC031201F8AF040201D157
:06019A008B228A23892458
:1001A0001201F8E4FDAB22AA23A9248D82758300F5
:0C01B000120003FF60061201D10D80E96F
:0101BC002220
:0C0142007F0AEA24FFFDE434FFFC7E008D
:08014E008E0D8F0E8C0F8D1039
:100156007F017E00E4FBEBC39510E50F6480F87425
:0E0166008098500AAC0DAD0E1200300B80E8F0
:010174002268
:0401DB008A0A8B0BF6
:1001DF001201F8AA0CEAD39400400D120142AC0AA6
:0801EF00AD0B1201BD1A80EDF9
:0101F70022E5
:100097001201F8C3EA64809480400B7F2B1201D1D0
:1000A7008A168B17800E7F2D1201D1C3E49BF5179B
:1000B700E49AF516AA15EAD39400400D120142AC52
:0900C70016AD171201BD1A80EDFF
:0100D000220D
:0400D1008A1A8B1BE1
:1000D5001201F8AA1CEAD3940040297F10120144AA
:1000E500AC1AAD1BCFCDCFCECCCE120042EF540F04
:1000F500FEC3940AEE5004243080022437FF120117
:04010500D11A80D1BA
:0101090022D3
:04010A008A1F8B209D
:10010E001201F8AA21EAD394004028EA24FFFDE464
:10011E0034FFFC7F027E0012014EAC1FAD20CFCD0E
:10012E00CFCECCCE120042EF54012430FF1201D1BB
:03013E001A80D252
:01014100229B
:06020E00AE071FEE600EBA
:0C0214007508027509EFD509FDD508FA40
:0302200080EC224D
:03000000020246B3
:0C024600787FE4F6D8FD75812602017572
:10000300BB010CE58229F582E5833AF583E02250B2
:1000130006E92582F8E622BBFE06E92582F8E222FC
:0D002300E58229F582E5833AF583E4932216
:10003000EF8DF0A4A8F0CF8CF0A428CE8DF0A42EE4
:02004000FE229E
:10004200BC000BBE0029EF8DF084FFADF022E4CCA2
:10005200F875F008EF2FFFEE33FEEC33FCEE9DEC6B
:10006200984005FCEE9DFE0FD5F0E9E4CEFD22EDB1
:10007200F8F5F0EE8420D21CFEADF075F008EF2FFB
:10008200FFED33FD4007985006D5F0F222C398FDEC
:050092000FD5F0EA2289
:00000001FF
