:09039000436C6F636B3A003A0004
:09037200011A38011C3B011B17A4
:10012E0012034F12030D7BFF7A0379907D017F013D
:10013E001202AFE51BFB7A00750C027D017F0212E5
:10014E0002F07BFF7A0379977D037F021202AFE5FF
:10015E001CFB7A00750C027D047F021202F07BFFFD
:10016E007A0379977D067F021202AFE51AFB7A00B9
:0C017E00750C027D077F021202F080B7B2
:03000B0002018A65
:04018A00C0E0C0D041
:10018E00758CFF758AFF0519E51970020518C39461
:10019E0010E51894274027751800751900051AE503
:1001AE001A943C4019751A00051CE51C943C400E2F
:0E01BE00751C00051BE51B94184003751B0003
:0501CC00D0D0D0E032AC
:06036300C2A58F80D2A7A5
:080369007F027EEFDEFEDFFCE7
:010371002269
:0A037C00C2A6120363C2A7020369C0
:1002D200CFCDCFCECCCE12004D7C007D0A12004D88
:0402E200ED2430FFD8
:0A02E600D2A6120363C2A702036947
:10032400AE07BE0104ED148006BE0209ED243F446D
:0603340080FF12037C2291
:10034F007F3812037C7F0C12037C7F0612037C7FA5
:04035F000102037C18
:0A038600AC03120324AF040202E6E8
:0602AF008B088A09890A90
:1002B500120324E4FDAB08AA09A90A8D82758300FF
:0C02C50012000EFF60061202E60D80E938
:0102D100220A
:0C027C007F0AEA24FFFDE434FFFC7E0052
:080288008E0D8F0E8C0F8D10FE
:100290007F017E00E4FBEBC39510E50F6480F874EA
:0E02A0008098500AAC0DAD0E12003B0B80E8AA
:0102AE00222D
:0402F0008A0A8B0BE0
:1002F400120324AA0CEAD39400400D12027CAC0A27
:08030400AD0B1202D21A80EDCC
:01030C0022CE
:1001D100120324C3EA64809480400B7F2B1202E651
:1001E1008A168B17800E7F2D1202E6C3E49BF5174A
:1001F100E49AF516AA15EAD39400400D12027CACDC
:0902010016AD171202D21A80EDAD
:01020A0022D1
:04020B008A1F8B209B
:10020F00120324AA21EAD3940040297F1012027E00
:10021F00AC1FAD20CFCDCFCECCCE12004DEF540FB3
:10022F00FEC3940AEE5004243080022437FF1202DA
:04023F00E61A80D16A
:010243002298
:040244008A248B2558
:10024800120324AA26EAD394004028EA24FFFDE4F6
:1002580034FFFC7F027E00120288AC24AD25CFCD8E
:10026800CFCECCCE12004DEF54012430FF1202E65F
:030278001A80D217
:01027B002260
:06033A00AE071FEE600E8D
:0C0340007527027528EFD528FDD527FA97
:03034C0080EC2220
:10030D005389F0438901758A66758CFCC28DD28C38
:07031D00D2A9D2AFC2B92240
:030000000200A259
:0C00A200787FE4F6D8FD7581280200E9A3
:10000E00BB010CE58229F582E5833AF583E02250A7
:10001E0006E92582F8E622BBFE06E92582F8E222F1
:0D002E00E58229F582E5833AF583E493220B
:10003B00EF8DF0A4A8F0CF8CF0A428CE8DF0A42ED9
:02004B00FE2293
:10004D00BC000BBE0029EF8DF084FFADF022E4CC97
:10005D00F875F008EF2FFFEE33FEEC33FCEE9DEC60
:10006D00984005FCEE9DFE0FD5F0E9E4CEFD22EDA6
:10007D00F8F5F0EE8420D21CFEADF075F008EF2FF0
:10008D00FFED33FD4007985006D5F0F222C398FDE1
:05009D000FD5F0EA227E
:1000AE0002012EE493A3F8E493A34003F68001F239
:1000BE0008DFF48029E493A3F85407240CC8C33353
:1000CE00C4540F4420C8834004F456800146F6DF22
:1000DE00E4800B0102040810204080900372E47E3D
:1000EE00019360BCA3FF543F30E509541FFEE49317
:1000FE00A360010ECF54C025E060A840B8E493A3DE
:10010E00FAE493A3F8E493A3C8C582C8CAC583CA08
:10011E00F0A3C8C582C8CAC583CADFE9DEE780BEC0
:01037B000081
:00000001FF
