:10054D0020202D20202D20200020203A20203A2070
:02055D0020007C
:10018E0012053912058C7BFF7A05794D7D017F01B1
:10019E001204C57BFF7A0579567D017F021204C5D4
:1001AE0012000012021FE518FB7A00750C027D0189
:1001BE007F01120506E519FB7A00750C027D047F9E
:1001CE0001120506E51AFB7A00750C027D077F0108
:1001DE00120506E51BFB7A00750C027D017F0212EB
:1001EE000506E51CFB7A00750C027D047F021205E4
:1001FE0006E51DFB7A00750C027D077F02120506CF
:10020E00E51EFB7A00750C027D097F021205068041
:01021E00924D
:06055F00C2A58F80D2A7A7
:080565007F027EEFDEFEDFFCE9
:01056D00226B
:0A056E00C2A612055FC2A7020565D0
:1004E800CFCDCFCECCCE1201397C007D0A12013996
:0404F800ED2430FFC0
:0A04FC00D2A612055FC2A702056533
:10052300AE07BE0104ED148006BE0209ED243F446C
:0605330080FF12056E229C
:100539007F3812056E7F0C12056E7F0612056E7FDD
:040549000102056E38
:0A057800AC03120523AF040204FCDB
:0604C5008B088A09890A78
:1004CB00120523E4FDAB08AA09A90A8D82758300E6
:0C04DB001200FAFF60061204FC0D80E91C
:0104E70022F2
:0C0492007F0AEA24FFFDE434FFFC7E003A
:08049E008E0D8F0E8C0F8D10E6
:1004A6007F017E00E4FBEBC39510E50F6480F874D2
:0E04B6008098500AAC0DAD0E1201270B80E8A5
:0104C4002215
:040506008A0A8B0BC7
:10050A00120523AA0CEAD39400400D120492AC0AF5
:08051A00AD0B1204E81A80ED9C
:0105220022B6
:1003E700120523C3EA64809480400B7F2B1204FC20
:1003F7008A168B17800E7F2D1204FCC3E49BF5171A
:10040700E49AF516AA15EAD39400400D120492ACAB
:0904170016AD171204E81A80ED7D
:0104200022B9
:040421008A218B227F
:10042500120523AA23EAD3940040297F10120494CD
:10043500AC21AD22CFCDCFCECCCE120139EF540FAA
:10044500FEC3940AEE5004243080022437FF1204C0
:04045500FC1A80D13C
:010459002280
:04045A008A268B273C
:10045E00120523AA28EAD394004028EA24FFFDE4DB
:10046E0034FFFC7F027E0012049EAC26AD27CFCD5A
:10047E00CFCECCCE120139EF54012430FF1204FC42
:03048E001A80D2FF
:010491002248
:09058200071817011E10001701F3
:05058C00C2B5C2B62259
:0803380025F0FDEC3EFC7E0007
:080340008E298F2AAB05AA04E7
:10034800D2B5E4FD74017E00A805088005C333CE4C
:1003580033CED8F9FFE5295EFEE52A5F4E24FF92E9
:10036800B4D2B6C2B60DBD08DBE4FD74017E00A8A8
:1003780005088005C333CE33CED8F9FFEE5AFEEF19
:100388005B4E24FF92B4D2B6C2B60DBD08DDC2B52D
:010398002242
:02039900AD07AE
:10039B00E4F9430501D2B5FB74017E00A803088084
:1003AB0005C333CE33CED8F9FFEDF582EF5582245A
:1003BB00FF92B4C2B6D2B60BBB08DDC2B4E4FBD21B
:1003CB00B6C2B630B40D7401A803088002C333D88B
:0B03DB00FC42010BBB08E8C2B5AF01FB
:0103E60022F4
:10000300E4FDFC7F8EFE120340E51875F00A84754B
:10001300F010A4FFAEF0E51875F00A84EF7F8C12A0
:100023000338E51975F00A8475F010A4FFAEF0E506
:100033001975F00A847C00EF7F88120338E51A757E
:10004300F00A8475F010A4FFAEF0E51A75F00A8487
:100053007C00EF25F0FDEC3EFC7F867E0012034022
:10006300E51B75F00A8475F010A4FFAEF0E51B756F
:10007300F00A847C00EF25F0FDEC3EFC7F847E00DB
:10008300120340E51C75F00A8475F010A4FFAEF06E
:10009300E51C75F00A847C00EF25F0FDEC3EFC7F47
:1000A300827E00120340E51D75F00A8475F010A4EA
:1000B300FFAEF0E51D75F00A847C00EF25F0FDEC42
:1000C3003EFC7F807E00120340E51E75F00A8475B6
:1000D300F010A4FFAEF0E51E75F00A847C00EF2556
:1000E300F0FDEC3EFC7F8A7E001203407D807C00A5
:0700F3007F8E7E0002034036
:10021F007F8C120399EFC4540F75F00AA4FEEF54AC
:10022F000F2EF5187F88120399EFC4540F75F00A3B
:10023F00A4FEEF540F2EF5197F86120399EFC454C5
:10024F000F75F00AA4FEEF540F2EF51A7F841203D8
:10025F0099EFC4540F75F00AA4FEEF540F2EF51B3F
:10026F007F82120399EFC4540F75F00AA4FEEF5466
:10027F000F2EF51C7F80120399EFC4540F75F00AEF
:10028F00A4FEEF540F2EF51D7F8A120399EFC4546D
:0C029F000F75F00AA4FEEF540F2EF51EA0
:0102AB002230
:030000000202AC4D
:0C02AC00787FE4F6D8FD75812A0202F389
:1000FA00BB010CE58229F582E5833AF583E02250BB
:10010A0006E92582F8E622BBFE06E92582F8E22204
:0D011A00E58229F582E5833AF583E493221E
:10012700EF8DF0A4A8F0CF8CF0A428CE8DF0A42EEC
:02013700FE22A6
:10013900BC000BBE0029EF8DF084FFADF022E4CCAA
:10014900F875F008EF2FFFEE33FEEC33FCEE9DEC73
:10015900984005FCEE9DFE0FD5F0E9E4CEFD22EDB9
:10016900F8F5F0EE8420D21CFEADF075F008EF2F03
:10017900FFED33FD4007985006D5F0F222C398FDF4
:050189000FD5F0EA2291
:1002B80002018EE493A3F8E493A34003F68001F2CD
:1002C80008DFF48029E493A3F85407240CC8C33347
:1002D800C4540F4420C8834004F456800146F6DF16
:1002E800E4800B0102040810204080900582E47E1F
:1002F800019360BCA3FF543F30E509541FFEE4930B
:10030800A360010ECF54C025E060A840B8E493A3D1
:10031800FAE493A3F8E493A3C8C582C8CAC583CAFC
:10032800F0A3C8C582C8CAC583CADFE9DEE780BEB4
:01058B00006F
:00000001FF
