:1000F9007D017F0112008F7FE812012B7D027F02B3
:1001090012008F7FE812012B7D037F0312008F7F7E
:10011900E812012B7D047F0412008F7FE812012B66
:0201290080CE86
:06012B00AE071FEE600E9E
:0C0131007512027513EFD513FDD512FAFC
:03013D0080EC2231
:0C0140000A083F065B4F666D7D077F6F6D
:10008F00EF14B4080050549000A475F003A4C58376
:10009F0025F0C583730200BC0200C00200C8020035
:1000AF00CC0200D40200D80200E00200E4D2A28009
:1000BF0002C2A2D2A3D2A48022D2A28002C2A2C222
:1000CF00A3D2A48016D2A28002C2A2D2A3C2A480BD
:1000DF000AD2A28002C2A2C2A3C2A4E4F58074080D
:0A00EF002DF8E6F5807F0102012BD9
:03000000020003F8
:0C000300787FE4F6D8FD75811302004AF6
:10000F000200F9E493A3F8E493A34003F68001F20E
:10001F0008DFF48029E493A3F85407240CC8C333F2
:10002F00C4540F4420C8834004F456800146F6DFC1
:10003F00E4800B0102040810204080900140E47E10
:10004F00019360BCA3FF543F30E509541FFEE493B6
:10005F00A360010ECF54C025E060A840B8E493A37D
:10006F00FAE493A3F8E493A3C8C582C8CAC583CAA8
:10007F00F0A3C8C582C8CAC583CADFE9DEE780BE60
:01014C0000B2
:00000001FF
