:02005000AD07FA
:10005200E4FB74807E00A803088006CEA2E713CEDC
:1000620013D8F8FFEDF582EF558224FF92B4D2B691
:0A007200C2B60BBB08DCD2B5C2B564
:01007C002261
:10007D008C088D09120050AF097480A80708800202
:10008D00C313D8FCF4F5807F0112009D7580FF220B
:10000300C2B6C2B5E4FDFC7F3C12007D7D017C00DD
:100013007F4212007D7D027C007FA512007D7D035F
:100023007C007F8912007D7D047C007F8912007D26
:100033007D057C007FA512007D7D067C007F42123A
:0D004300007D7D077C007F3C12007D80B7B2
:06009D00AE071FEE600E2D
:0C00A300750A02750BEFD50BFDD50AFAAB
:0300AF0080EC22C0
:030000000200B249
:0C00B200787FE4F6D8FD75810B02000396
:00000001FF
